:020000040800F2
:10000000700700209D4F0008E1020008E30200088D
:10001000E7020008EB020008EF0200080000000001
:10002000000000000000000000000000F3020008D3
:10003000F502000800000000F7020008F9020008BD
:10004000B74F0008B74F0008B74F0008B74F000878
:10005000B74F0008B74F0008B74F0008B74F000868
:10006000B74F0008B74F0008B74F0008B74F000858
:10007000B74F0008B74F0008B74F0008B74F000848
:10008000B74F0008B74F0008B74F0008B74F000838
:10009000B74F0008B74F0008B74F0008B74F000828
:1000A000B74F0008B74F0008B74F0008B74F000818
:1000B000B74F0008B74F0008B74F0008B74F000808
:1000C000B74F0008B74F0008B74F0008B74F0008F8
:1000D000B74F0008114F0008B74F0008B74F00088E
:1000E000B74F0008B74F0008B74F0008B74F0008D8
:1000F000B74F0008B74F0008B74F0008B74F0008C8
:10010000B74F0008B74F0008B74F0008B74F0008B7
:10011000B74F0008B74F0008B74F0008B74F0008A7
:10012000B74F0008B74F0008B74F0008B74F000897
:1001300000F002F800F03FF80AA090E8000C8244BA
:100140008344AAF10107DA4501D100F034F8AFF297
:10015000090EBAE80F0013F0010F18BFFB1A43F0A5
:1001600001031847BC6E0000DC6E0000103A24BF8B
:1001700078C878C1FAD8520724BF30C830C144BF0C
:1001800004680C607047000000230024002500264E
:10019000103A28BF78C1FBD8520728BF30C148BFEA
:1001A0000B607047782906F05B80002070471FB510
:1001B0001FBD10B510BD06F0ADF91146FFF7F7FFF2
:1001C00000F008F806F0CBF903B4FFF7F2FF03BC28
:1001D00004F040FE86B0002404F0CCFD04F034FEB0
:1001E0004FF4165004F045FE00F078F900F036FFA9
:1001F0004FF47840254908802548828825A103A826
:1002000005F0F2FF40E026A010210B46C822CDE900
:10021000001032211E2004F079FD26A010210B468B
:10022000C822CDE9001042211E2004F06FFD24A059
:1002300010210B46C822CDE9001052211E2004F0E7
:1002400065FD03A810210B46C822CDE900106E21E0
:100250001E2004F05BFD1EA010210B46C822CDE934
:10026000001082211E2004F051FD0C2C00D100242E
:100270001A48006808B9012000E00020174908600A
:100280004FF47A7004F0B3FDBDE7000014000020C5
:10029000380000204C43442049443A25303458006B
:1002A000576172536869702053544D3332205E5F3A
:1002B0005E0000005446544C4344205445535400BF
:1002C00041544F4D40414C49454E54454B00000070
:1002D000323031322F392F35000000009481214215
:1002E000704700BFFEE700BFFEE700BFFEE700BFAC
:1002F000FEE7704770477047704700000CB500205C
:10030000019000906C48006840F480306A490860B1
:1003100000BF6948006800F4003000900198401C5C
:100320000190009818B90198B0F5A06FF1D162481A
:10033000006800F4003010B10120009001E00020BE
:1003400000900098012843D15C48006840F01000FC
:100350005A4908600846006820F003000860084613
:10036000006840F002000860534840685249486005
:100370000846406848600846406840F4806048602D
:100380000846406820F47C1048600846406840F405
:10039000E81048600846006840F08070086000BFC0
:1003A0004548006800F000700028F9D042484068D5
:1003B00020F00300404948600846406840F00200D1
:1003C000486000BF3C48406800F00C000828F9D1A4
:1003D0000CBD10B5FFF792FF10BD10B53648006890
:1003E00040F001003449086008464068344908403C
:1003F0003149486008460068324908402E49086083
:100400000846006820F4802008600846406820F410
:10041000FE0048604FF41F008860FFF7DAFF4FF0DE
:1004200000602949086010BD10B50021002000229D
:10043000214B5B6803F00C0121B1042906D0082987
:1004400028D107E0214B224C236027E01F4B204C92
:10045000236023E0184B5B6803F47010164B5B6855
:1004600003F48032022303EB904022B9194B43433B
:10047000174C23600DE0104B5B6803F4003323B18D
:10048000144B4343124C236003E0104B4343104C86
:10049000236003E00D4B0E4C236000BF00BF064BF2
:1004A0005B68C3F303130C4CE15C094B1B68CB4046
:1004B000074C236010BD00000010024000200240E5
:1004C0000000FFF8FFFFF6FE08ED00E000127A00E2
:1004D0000000002000093D000400002008B50121B3
:1004E000482005F00BFC2020ADF8000010208DF80E
:1004F000030003208DF802006946094805F042F91F
:100500002021074805F0EBF92020ADF800006946EE
:10051000044805F037F92021024805F0E0F908BD4C
:10052000000C014000180140FE4908807047FD4959
:10053000891C08807047FB48801C00887047F94A76
:100540001080921C1180704710B504462046FFF7BA
:10055000EBFF052004F027FCFFF7EDFF10BDF2488C
:100560000089F04908807047EE49891C088070476F
:1005700030B5014601F01F04C1F34513CA0AE50274
:1005800005EB43151544A8B230BD00BF0100A0F132
:100590000102D0B2FAD1704710B503460C46E248CA
:1005A000808849F24131884205D0DF48808845F291
:1005B0001031884214D1DC494889FFF7B5FF181281
:1005C000FFF7B5FFD8B2FFF7B2FFD7498889FFF729
:1005D000ABFF2012FFF7ABFFE0B2FFF7A8FF5DE033
:1005E000D148808846F6040188421DD1CE488079E2
:1005F000012804D1CC480088401EC01A83B2CA49E1
:100600004889FFF791FF1812FFF791FFD8B2FFF763
:100610008EFFC5498889FFF787FF2012FFF787FF04
:10062000E0B2FFF784FF39E0BF48808845F21051FF
:10063000884220D1BC494889FFF776FF1812FFF79E
:1006400076FFB9494989491C88B2FFF76DFFD8B2D6
:10065000FFF76DFFB4498889FFF766FF2012FFF7A7
:1006600066FFB1498989491C88B2FFF75DFFE0B296
:10067000FFF75DFF12E0AC488079012804D1AA4859
:100680000088401EC01A83B2A74948891946FFF75F
:1006900056FFA54988892146FFF751FF10BD2DE976
:1006A000F04105460E4600240027A0469E480088DB
:1006B000A84203DD9C484088B04202DC0020BDE82F
:1006C000F08131462846FFF767FF9748808849F256
:1006D000413188420BD09448808846F60401884214
:1006E00005D09148808845F21031884203D12E20F0
:1006F000FFF71AFF0DE08C48808845F210518842C0
:1007000004D14FF43850FFF70FFF02E02220FFF72B
:100710000BFF8548808849F22031884202D10220AF
:10072000FFF733FF7F48801C008800B100240220BF
:10073000FFF72BFF7B48801C04887B48808849F2A8
:10074000413188420BD07848808845F21031884288
:1007500005D07548808845F2105188420CD102209E
:10076000FFF713FF6F48801CB0F80080E7B24FF628
:10077000FF7000EA072708E06B48808846F604010E
:10078000884202D16748801C04886748808849F203
:100790002531884216D06448808844F23551884219
:1007A00010D061488088091F88420BD05E4880883D
:1007B00048F68911884205D05B4880884BF2055184
:1007C000884201D120467AE75748808849F2413172
:1007D00088420BD05448808845F21031884205D0B9
:1007E0005148808845F21051884207D1E012C0027A
:1007F000B91240EA411040EAE82060E72046FFF7DE
:10080000B7FE5CE700B54848808849F2413188422C
:100810000BD04548808846F60401884205D04248FE
:10082000808845F21031884203D12920FFF77CFEF1
:100830000FE03D48808845F21051884204D14FF4C2
:100840002450FFF771FE04E040F273110720FFF718
:1008500076FE00BD00B53448808849F241318842B7
:100860000BD03148808846F60401884205D02E48D6
:10087000808845F21031884203D12820FFF754FECA
:100880000EE02948808845F21051884204D14FF487
:100890002050FFF749FE03E000210720FFF74FFE3D
:1008A00000BD70B50446002300261F48807901284A
:1008B0001ED11D48808846F60401884218D0082CB5
:1008C00015D2DFE804F00406080A0C0E1012062404
:1008D0000DE007240BE0042409E0052407E00124CF
:1008E00005E0002403E0032401E0022400BF00BF70
:1008F0000D48808849F24131884211D00A488088E9
:1009000046F6040188420BD00748808845F2103132
:10091000884205D00448808845F2105188427CD135
:10092000082C03E0FE07006C380000201CD2DFE832
:1009300004F00406090C0F12151800BF14E043F070
:10094000800311E043F040030EE043F0C0030BE0EE
:1009500043F0200308E043F0600305E043F0A00308
:1009600002E043F0E00300BF00BFFC48808845F28E
:100970001051884202D14FF4585600E03626F7480D
:10098000808845F21031884207D0F448808845F2CB
:100990001051884201D043F00803F048808846F6A1
:1009A0000401884201D143F0020319463046FFF7A3
:1009B000C6FD03F0200018B9E848807901280DD160
:1009C000E6480088E5494988884214DAE348058802
:1009D0004088E2490880084645800CE0DF480088EE
:1009E000DE494988884206DDDC4805884088DB49C5
:1009F000088008464580D948808845F210518842D1
:100A000054D1D6494889FFF78FFD0020FFF78FFDAD
:100A1000D2494989491C88B200E076E0FFF784FD9D
:100A20000020FFF784FDCD494989891C88B2FFF772
:100A30007BFDCA490988491EC1F30F20FFF777FDE6
:100A4000C6494989C91C88B2FFF76EFDC3490978B8
:100A5000491EC8B2FFF76BFDC0498889FFF764FDE6
:100A60000020FFF764FDBD498989491C88B2FFF762
:100A70005BFD0020FFF75BFDB8498989891C88B2BE
:100A8000FFF752FDB5494988491EC1F30F20FFF712
:100A90004EFDB2498989C91C88B2FFF745FDAF49AF
:100AA0008978491EC8B2FFF742FD60E0AB4948892A
:100AB000FFF73AFD0020FFF73AFD0020FFF737FD72
:100AC000A6490988491EC1F30F20FFF730FDA3494D
:100AD0000978491EC8B2FFF72AFDA0498889FFF7A7
:100AE00023FD0020FFF723FD0020FFF720FD9B4999
:100AF0004988491EC1F30F20FFF719FD97498978EE
:100B0000491EC8B2FFF713FD31E0082C1CD2DFE804
:100B100004F004070A0D0F12151843F0300313E018
:100B200043F0100310E043F020030DE000BF0BE0A2
:100B300043F0380308E043F0280305E043F01803CE
:100B400002E043F0080300BF00BF8448808848F6F5
:100B50008911884204D1112646F24000034302E085
:100B6000032643F4805319463046FFF7E8FC70BD76
:100B700030B504460D4629462046FFF70DFDFFF728
:100B8000EEFC774800887749088030BD30B50346D1
:100B90000C4615467148808849F24131884205D09B
:100BA0006E48808845F21031884214D16B494889DB
:100BB000FFF7BAFC1812FFF7BAFCD8B2FFF7B7FC80
:100BC00066498889FFF7B0FC2012FFF7B0FCE0B25D
:100BD000FFF7ADFC5DE06148808845F21051884226
:100BE00020D15E494889FFF79FFC1812FFF79FFC50
:100BF0005A494989491C88B2FFF796FCD8B2FFF7D9
:100C000096FC56498889FFF78FFC2012FFF78FFC6E
:100C100052498989491C88B2FFF786FCE0B2FFF788
:100C200086FC36E04D48808846F6040188421DD196
:100C30004A488079012804D148480088401EC01ADB
:100C400083B246494889FFF76FFC1812FFF76FFC23
:100C5000D8B2FFF76CFC41498889FFF765FC201288
:100C6000FFF765FCE0B2FFF762FC12E03B488079D9
:100C7000012804D139480088401EC01A83B2374980
:100C800048891946FFF75BFC344988892146FFF7FC
:100C900056FC324800893349891E0880881C05802B
:100CA00030BD10B50446002C66D12C498871F02067
:100CB00008804FF4A07048800846808849F241318E
:100CC00088420BD02548808846F60401884205D02A
:100CD0002248808845F2103188421AD12C201F49C1
:100CE00008812A2048812B2088810846808846F682
:100CF0000401884205D01948808845F210318842A5
:100D000006D14FF4A070154908804FF4F070488068
:100D10009BE01248808848F68911884207D122203A
:100D20000E4908814E2048814F2088818DE00B4874
:100D3000808845F21051884216D14FF4305007494F
:100D400008814FF4285048814FF42C5088814FF48B
:100D5000F07008804FF44870488076E0380000203A
:100D6000140000200008006C2220FE490881202089
:100D700048812120888168E00120FA4988714FF478
:100D8000A0700880F02048800846808849F24131F0
:100D9000884205D0F348808845F21031884207D157
:100DA0002C20F04908812A2048812B20888139E0B5
:100DB000EC48808846F60401884207D12C20E94996
:100DC00008812B2048812A2088812BE0E5488088F3
:100DD00048F68911884207D12220E24908814F2034
:100DE00048814E2088811DE0DE48808845F2105100
:100DF000884210D14FF43050DA4908814FF428501E
:100E000048814FF42C5088814FF4487008804FF48B
:100E1000F070488006E02220D249088121204881D4
:100E200020208881CF48808846F60401884205D07A
:100E3000CC48808845F21031884206D14FF4F070DA
:100E4000C84908804FF4A07048800020FFF729FDB2
:100E500010BD2DE9FF4F04460D4616461F46A0194A
:100E6000401E86B2E819401E87B2BE48808849F20B
:100E7000413188420BD0BB48808845F2103188420E
:100E800005D0B848808846F60401884220D1B5498B
:100E90004889FFF749FB2012FFF749FBE0B2FFF753
:100EA00046FB3012FFF743FBF0B2FFF740FBAD49C2
:100EB0008889FFF739FB2812FFF739FBE8B2FFF703
:100EC00036FB3812FFF733FBF8B2FFF730FB91E047
:100ED000A448808845F21051884244D1A1494889EC
:100EE000FFF722FB2012FFF722FB9E494989491C8C
:100EF00088B2FFF719FBE0B2FFF719FB994949895E
:100F0000891C88B2FFF710FB3012FFF710FB9549E0
:100F10004989C91C88B2FFF707FBF0B2FFF707FB4E
:100F200090498889FFF700FB2812FFF700FB8D49E5
:100F30008989491C88B2FFF7F7FAE8B2FFF7F7FA98
:100F400088498989891C88B2FFF7EEFA3812FFF7C1
:100F5000EEFA84498989C91C88B2FFF7E5FAF8B22C
:100F6000FFF7E5FA46E07F48807901280ED1A846D0
:100F7000B9467C480088801B401E80B201907948A9
:100F80000088001B401E80B2009003E0A046B146DE
:100F9000019500977348808848F6891188420DD1E1
:100FA0004FF0440A4FF0440B48EA09201FFA80F83A
:100FB000C146452003904620029007E04FF0500ABA
:100FC0004FF0510B5220039053200290414650465F
:100FD000FFF7B5FA49465846FFF7B1FA0199039869
:100FE000FFF7ADFA00990298FFF7A9FA29462046C3
:100FF000FFF7D2FABDE8FF8F70B5044600265948C6
:101000000588408845435748808846F60401884251
:1010100016D154488079012812D100205149887195
:101020002A2048812B20888100210846FFF7B4FA46
:1010300001204C4988712B2048812A20888103E0B7
:1010400000210846FFF7A8FAFFF789FA002602E018
:1010500045480480761CAE42FAD370BD00B59FB0FF
:101060000121080204F03DFE012140F2E11004F0EC
:1010700045FE0220ADF8780010208DF87B0003209B
:101080008DF87A001EA9394804F07CFB022137480C
:1010900004F025FC4CF23370ADF8780018208DF880
:1010A0007B0003208DF87A001EA9314804F06AFB0A
:1010B0004FF6C070ADF8780018208DF87B00032043
:1010C0008DF87A001EA92B4804F05CFB40212948CA
:1010D00004F005FC4FF48050ADF8780018208DF82E
:1010E0007B0003208DF87A001EA9234804F04AFBF8
:1010F0000120ADF8780018208DF87B0003208DF8D2
:101100007A001EA91D4804F03DFB002008900990BC
:1011100002200A9000200B900C900D900E900190F0
:101120000290032003900020049005900690079001
:1011300006200F9000201090119010201290002097
:10114000139015901490169017904FF480501890AB
:10115000002019904FF480401A9000201B9008A89E
:101160001C900DE0380000200008006C00080140D1
:10117000001401400018014000200140001C014003
:1011800001A81D900FA803F0E3FF0121062004F041
:1011900047F9322003F02BFE01210020FFF7CFF9A1
:1011A000322003F024FE0020FFF7CEF9FE498880AC
:1011B00008468088FF280ADB084680884FF6FF71C2
:1011C000884204D0F8488088B0F5134F7ED1D320F0
:1011D000FFF7AAF9FFF7AFF9FFF7ADF9FFF7ABF9A2
:1011E000F1498880084680884FF6FF7101EA0020A7
:1011F000ED498880FFF79FF9EB4989880843EA4960
:1012000088800846808849F2413188426CD0BF20EE
:10121000FFF78AF9FFF78FF9FFF78DF9FFF78BF9E1
:10122000FFF789F9E0498880084680884FF6FF710A
:1012300001EA0020DC498880FFF77DF9DA498988D6
:101240000843D94988800846808846F604018842C8
:101250004AD0D420FFF768F9FFF76DF9FFF76BF973
:10126000FFF769F9D0498880084680884FF6FF71FA
:1012700001EA0020CC498880FFF75DF9CA498988D6
:101280000843C94988800846808845F21031884261
:101290002AD04FF45A40FFF747F9FFF74CF94FF4C3
:1012A0005B40FFF741F9FFF746F9BF4988800846E0
:1012B00080884FF6FF7101EA0020BB4988804FF417
:1012C0005C40FFF731F9FFF736F900E00CE0B64972
:1012D00089880843B449888008468088B0F5004F63
:1012E00002D145F210508880AF488188AFA004F049
:1012F0006FFFAD48808849F2413188427ED1CF20CE
:10130000FFF712F90020FFF712F9C120FFF70FF9DC
:101310003020FFF70CF9ED20FFF706F96420FFF706
:1013200006F90320FFF703F91220FFF700F98120E7
:10133000FFF7FDF8E820FFF7F7F88520FFF7F7F84B
:101340001020FFF7F4F87A20FFF7F1F8CB20FFF731
:10135000EBF83920FFF7EBF82C20FFF7E8F8002036
:10136000FFF7E5F83420FFF7E2F80220FFF7DFF897
:10137000F720FFF7D9F82020FFF7D9F8EA20FFF788
:10138000D3F80020FFF7D3F80020FFF7D0F8C020F3
:10139000FFF7CAF81B20FFF7CAF8C120FFF7C4F80F
:1013A0000120FFF7C4F8C520FFF7BEF83020FFF793
:1013B000BEF83020FFF7BBF8C720FFF7B5F8B7201D
:1013C000FFF7B5F83620FFF7AFF84820FFF7AFF882
:1013D0003A20FFF7A9F85520FFF7A9F8B120FFF749
:1013E000A3F80020FFF7A3F81A20FFF7A0F8B62013
:1013F000FFF79AF80A20FFF79AF800E097E0A2209A
:10140000FFF795F8F220FFF78FF80020FFF78FF82D
:101410002620FFF789F80120FFF789F8E020FFF781
:1014200083F80F20FFF783F82A20FFF780F82820A1
:10143000FFF77DF80820FFF77AF80E20FFF777F81E
:101440000820FFF774F85420FFF771F8A920FFF780
:101450006EF84320FFF76BF80A20FFF768F80F20BB
:10146000FFF765F80020FFF762F80020FFF75FF84C
:101470000020FFF75CF80020FFF759F8E120FFF7A4
:1014800053F80020FFF753F81520FFF750F8172006
:10149000FFF74DF80720FFF74AF81120FFF747F84C
:1014A0000620FFF744F82B20FFF741F85620FFF7FE
:1014B0003EF83C20FFF73BF80520FFF738F81020F6
:1014C000FFF735F80F20FFF732F83F20FFF72FF82E
:1014D0003F20FFF72CF80F20FFF729F82B20FFF70C
:1014E00023F80020FFF723F80020FFF720F8012061
:1014F000FFF71DF83F20FFF71AF82A20FFF714F82E
:101500000020FFF714F80020FFF711F80020FFF784
:101510000EF8EF20FFF70BF81120FFF705F8782001
:1015200003F065FC2920FEF7FFFF03F02AB91E48EF
:10153000808846F6040188427ED11120FEF7F4FF30
:10154000142003F054FCD020FEF7EEFF0720FEF736
:10155000EEFF4220FEF7EBFF1D20FEF7E8FFD12053
:10156000FEF7E2FF0020FEF7E2FF1A20FEF7DFFFA2
:101570000920FEF7DCFFD220FEF7D6FF0120FEF7A0
:10158000D6FF2220FEF7D3FFC020FEF7CDFF1020AC
:10159000FEF7CDFF3B20FEF7CAFF0020FEF7C7FF96
:1015A0000220FEF7C4FF09E038000020204C43442D
:1015B0002049443A25780D0A000000001120FEF76A
:1015C000B6FFC520FEF7B0FF0320FEF7B0FFC8202E
:1015D000FEF7AAFF0020FEF7AAFF2520FEF7A7FFCF
:1015E0002120FEF7A4FF0520FEF7A1FF0020FEF753
:1015F0009EFF0A20FEF79BFF6520FEF798FF25203F
:10160000FEF795FF7720FEF792FF5020FEF78FFF41
:101610000F20FEF78CFF0020FEF789FFF820FEF771
:1016200083FF0120FEF783FFFE20FEF77DFF0020F1
:10163000FEF77DFF022000E035E0FEF778FF202076
:10164000FEF772FF3620FEF76FFF0820FEF76FFFF0
:101650003A20FEF769FF5520FEF769FF2B20FEF7C1
:1016600063FF0020FEF763FF0020FEF760FF01200C
:10167000FEF75DFF3F20FEF75AFF2A20FEF754FFDA
:101680000020FEF754FF0020FEF751FF0120FEF777
:101690004EFFDF20FEF74BFF782003F0A8FB292048
:1016A000FEF742FF41E7FE48808845F2103188424C
:1016B00040F07C87ED20FEF737FF0120FEF737FF73
:1016C000FE20FEF734FFEE20FEF72EFFDE20FEF7B1
:1016D0002EFF2120FEF72BFFF120FEF725FF012032
:1016E000FEF725FFDF20FEF71FFF1020FEF71FFF8C
:1016F000C420FEF719FF8F20FEF719FFC620FEF762
:1017000013FF0020FEF713FFE220FEF710FFE22098
:10171000FEF70DFFE220FEF70AFFBF20FEF704FFF1
:10172000AA20FEF704FFB020FEF7FEFE0D20FEF714
:10173000FEFE0020FEF7FBFE0D20FEF7F8FE002067
:10174000FEF7F5FE1120FEF7F2FE0020FEF7EFFE99
:101750001920FEF7ECFE0020FEF7E9FE2120FEF73F
:10176000E6FE0020FEF7E3FE2D20FEF7E0FE00205F
:10177000FEF7DDFE3D20FEF7DAFE0020FEF7D7FE85
:101780005D20FEF7D4FE0020FEF7D1FE5D20FEF7BF
:10179000CEFE0020FEF7CBFEB120FEF7C5FE802076
:1017A000FEF7C5FE0020FEF7C2FE8B20FEF7BFFE4F
:1017B0000020FEF7BCFE9620FEF7B9FE0020FEF7E3
:1017C000B6FEB220FEF7B0FE0020FEF7B0FE00200D
:1017D000FEF7ADFE0220FEF7AAFE0020FEF7A7FEF0
:1017E0000320FEF7A4FE0020FEF7A1FEB320FEF7C3
:1017F0009BFE0020FEF79BFE0020FEF798FE0020D7
:10180000FEF795FE0020FEF792FE0020FEF78FFE09
:101810000020FEF78CFE0020FEF789FE0020FEF778
:1018200086FE0020FEF783FE0020FEF780FE0020EB
:10183000FEF77DFE0020FEF77AFE0020FEF777FE21
:101840000020FEF774FE0020FEF771FE0020FEF778
:101850006EFE0020FEF76BFE0020FEF768FE002003
:10186000FEF765FE0020FEF762FE0020FEF75FFE39
:101870000020FEF75CFE0020FEF759FE0020FEF778
:1018800056FEB420FEF750FE8B20FEF750FE0020DF
:10189000FEF74DFE9620FEF74AFE0020FEF747FEBB
:1018A000A120FEF744FE0020FEF741FEB520FEF722
:1018B0003BFE0220FEF73BFE0020FEF738FE032031
:1018C000FEF735FE0020FEF732FE0420FEF72FFE65
:1018D0000020FEF72CFEB620FEF726FE0020FEF7C5
:1018E00026FE0020FEF723FEB720FEF71DFE002097
:1018F000FEF71DFE0020FEF71AFE3F20FEF717FE42
:101900000020FEF714FE5E20FEF711FE0020FEF719
:101910000EFE6420FEF70BFE0020FEF708FE8C2072
:10192000FEF705FE0020FEF702FEAC20FEF7FFFDED
:101930000020FEF7FCFDDC20FEF7F9FD0020FEF79D
:10194000F6FD7020FEF7F3FD0020FEF7F0FD90207D
:10195000FEF7EDFD0020FEF7EAFDEB20FEF7E7FDC8
:101960000020FEF7E4FDDC20FEF7E1FD0020FEF79D
:10197000DEFDB820FEF7D8FD0020FEF7D8FD0020E0
:10198000FEF7D5FD0020FEF7D2FD0020FEF7CFFDCB
:101990000020FEF7CCFD0020FEF7C9FD0020FEF779
:1019A000C6FD0020FEF7C3FDBA20FEF7BDFD2420D2
:1019B000FEF7BDFD0020FEF7BAFD0020FEF7B7FDE3
:1019C0000020FEF7B4FDC120FEF7AEFD2020FEF79B
:1019D000AEFD0020FEF7ABFD5420FEF7A8FD002071
:1019E000FEF7A5FDFF20FEF7A2FD0020FEF79FFDFC
:1019F000C220FEF799FD0A20FEF799FD0020FEF7B0
:101A000096FD0420FEF793FD0020FEF790FDC32015
:101A1000FEF78AFD3C20FEF78AFD0020FEF787FDD9
:101A20003A20FEF784FD0020FEF781FD3920FEF705
:101A30007EFD0020FEF77BFD3720FEF778FD0020BD
:101A4000FEF775FD3C20FEF772FD0020FEF76FFDEE
:101A50003620FEF76CFD0020FEF769FD3220FEF710
:101A600066FD0020FEF763FD2F20FEF760FD0020DD
:101A7000FEF75DFD2C20FEF75AFD0020FEF757FD16
:101A80002920FEF754FD0020FEF751FD2620FEF729
:101A90004EFD0020FEF74BFD2420FEF748FD01E03F
:101AA000380000200020FEF742FD2420FEF73FFD15
:101AB0000020FEF73CFD2320FEF739FD0020FEF755
:101AC00036FD3C20FEF733FD0020FEF730FD3620CA
:101AD000FEF72DFD0020FEF72AFD3220FEF727FD40
:101AE0000020FEF724FD2F20FEF721FD0020FEF749
:101AF0001EFD2C20FEF71BFD0020FEF718FD2920FF
:101B0000FEF715FD0020FEF712FD2620FEF70FFD63
:101B10000020FEF70CFD2420FEF709FD0020FEF753
:101B200006FD2420FEF703FD0020FEF700FD232024
:101B3000FEF7FDFC0020FEF7FAFCC420FEF7F4FCE3
:101B40006220FEF7F4FC0020FEF7F1FC0520FEF712
:101B5000EEFC0020FEF7EBFC8420FEF7E8FC002002
:101B6000FEF7E5FCF020FEF7E2FC0020FEF7DFFCCC
:101B70001820FEF7DCFC0020FEF7D9FCA420FEF7BD
:101B8000D6FC0020FEF7D3FC1820FEF7D0FC002086
:101B9000FEF7CDFC5020FEF7CAFC0020FEF7C7FC84
:101BA0000C20FEF7C4FC0020FEF7C1FC1720FEF756
:101BB000BEFC0020FEF7BBFC9520FEF7B8FC002021
:101BC000FEF7B5FCF320FEF7B2FC0020FEF7AFFCF9
:101BD000E620FEF7ACFC0020FEF7A9FCC520FEF7CE
:101BE000A3FC3220FEF7A3FC0020FEF7A0FC44205B
:101BF000FEF79DFC0020FEF79AFC6520FEF797FC9F
:101C00000020FEF794FC7620FEF791FC0020FEF702
:101C10008EFC8820FEF78BFC0020FEF788FCC62097
:101C2000FEF782FC2020FEF782FC0020FEF77FFCFE
:101C30001720FEF77CFC0020FEF779FC0120FEF760
:101C400076FC0020FEF773FCC720FEF76DFC002039
:101C5000FEF76DFC0020FEF76AFC0020FEF767FC33
:101C60000020FEF764FCC820FEF75EFC0020FEF7B3
:101C70005EFC0020FEF75BFC0020FEF758FC002015
:101C8000FEF755FCC920FEF74FFC0020FEF74FFC85
:101C90000020FEF74CFC0020FEF749FC0020FEF778
:101CA00046FC0020FEF743FC0020FEF740FC00202D
:101CB000FEF73DFC0020FEF73AFC0020FEF737FC63
:101CC0000020FEF734FC0020FEF731FC0020FEF778
:101CD0002EFC0020FEF72BFC0020FEF728FC002045
:101CE000FEF725FC0020FEF722FCE020FEF71CFC9E
:101CF0001620FEF71CFC0020FEF719FC1C20FEF746
:101D000016FC0020FEF713FC2120FEF710FC00203B
:101D1000FEF70DFC3620FEF70AFC0020FEF707FC5C
:101D20004620FEF704FC0020FEF701FC5220FEF7DF
:101D3000FEFB0020FEF7FBFB6420FEF7F8FB002013
:101D4000FEF7F5FB7A20FEF7F2FB0020FEF7EFFB33
:101D50008B20FEF7ECFB0020FEF7E9FB9920FEF755
:101D6000E6FB0020FEF7E3FBA820FEF7E0FB0020E7
:101D7000FEF7DDFBB920FEF7DAFB0020FEF7D7FB0C
:101D8000C420FEF7D4FB0020FEF7D1FBCA20FEF7EB
:101D9000CEFB0020FEF7CBFBD220FEF7C8FB0020D5
:101DA000FEF7C5FBD920FEF7C2FB0020FEF7BFFB04
:101DB000E020FEF7BCFB0020FEF7B9FBF320FEF7A6
:101DC000B6FB0020FEF7B3FBE120FEF7ADFB1620CB
:101DD000FEF7ADFB0020FEF7AAFB1C20FEF7A7FBD9
:101DE0000020FEF7A4FB2220FEF7A1FB0020FEF757
:101DF0009EFB3620FEF79BFB0020FEF798FB45205C
:101E0000FEF795FB0020FEF792FB5220FEF78FFBBA
:101E10000020FEF78CFB6420FEF789FB0020FEF714
:101E200086FB7A20FEF783FB0020FEF780FB8B20E9
:101E3000FEF77DFB0020FEF77AFB9920FEF777FB8B
:101E40000020FEF774FBA820FEF771FB0020FEF7D0
:101E50006EFBB920FEF76BFB0020FEF768FBC42089
:101E6000FEF765FB0020FEF762FBCA20FEF75FFB72
:101E70000020FEF75CFBD220FEF759FB0020FEF7A6
:101E800056FBD820FEF753FB0020FEF750FBE02066
:101E9000FEF74DFB0020FEF74AFBF320FEF747FB61
:101EA0000020FEF744FBE220FEF73EFB0520FEF794
:101EB0003EFB0020FEF73BFB0B20FEF738FB00202B
:101EC000FEF735FB1B20FEF732FB0020FEF72FFB51
:101ED0003420FEF72CFB0020FEF729FB4420FEF700
:101EE00026FB0020FEF723FB4F20FEF720FB0020FF
:101EF000FEF71DFB6120FEF71AFB0020FEF717FB23
:101F00007920FEF714FB0020FEF711FB8820FEF776
:101F10000EFB0020FEF70BFB9720FEF708FB0020CE
:101F2000FEF705FBA620FEF702FB0020FEF7FFFAF6
:101F3000B720FEF7FCFA0020FEF7F9FAC220FEF700
:101F4000F6FA0020FEF7F3FAC720FEF7F0FA0020B9
:101F5000FEF7EDFAD120FEF7EAFA0020FEF7E7FAE5
:101F6000D620FEF7E4FA0020FEF7E1FADD20FEF7C6
:101F7000DEFA0020FEF7DBFAF320FEF7D8FA0020A5
:101F8000FEF7D5FAE320FEF7CFFA0520FEF7CFFAE9
:101F90000020FEF7CCFA0A20FEF7C9FA0020FEF76F
:101FA000C6FA1C20FEF7C3FA0020FEF7C0FA332061
:101FB000FEF7BDFA0020FEF7BAFA4420FEF7B7FAA2
:101FC0000020FEF7B4FA5020FEF7B1FA0020FEF729
:101FD000AEFA6220FEF7ABFA0020FEF7A8FA7820EE
:101FE000FEF7A5FA0020FEF7A2FA8820FEF79FFA76
:101FF0000020FEF79CFA9720FEF799FA0020FEF7E2
:1020000096FAA620FEF793FA0020FEF790FAB72082
:10201000FEF78DFA0020FEF78AFAC220FEF787FA53
:102020000020FEF784FAC720FEF781FA0020FEF7B1
:102030007EFAD120FEF77BFA0020FEF778FAD52051
:10204000FEF775FA0020FEF772FADD20FEF76FFA50
:102050000020FEF76CFAF320FEF769FA0020FEF785
:1020600066FAE420FEF760FA0120FEF760FA00202D
:10207000FEF75DFA0120FEF75AFA0020FEF757FA44
:102080000220FEF754FA0020FEF751FA2A20FEF74C
:102090004EFA0020FEF74BFA3C20FEF748FA0020EB
:1020A000FEF745FA4B20FEF742FA0020FEF73FFA12
:1020B0005D20FEF73CFA0020FEF739FA7420FEF7A7
:1020C00036FA0020FEF733FA8420FEF730FA0020BB
:1020D000FEF72DFA9320FEF72AFA0020FEF727FAE2
:1020E000A220FEF724FA0020FEF721FAB320FEF723
:1020F0001EFA0020FEF71BFABE20FEF718FA002099
:10210000FEF715FAC420FEF712FA0020FEF70FFAC8
:10211000CD20FEF70CFA0020FEF709FAD320FEF7D7
:1021200006FA0020FEF703FADD20FEF700FA002091
:10213000FEF7FDF9F320FEF7FAF90020FEF7F7F9B4
:10214000E520FEF7F1F90020FEF7F1F90020FEF797
:10215000EEF90020FEF7EBF90020FEF7E8F9022087
:10216000FEF7E5F90020FEF7E2F92920FEF7DFF996
:102170000020FEF7DCF93C20FEF7D9F90020FEF73D
:10218000D6F94B20FEF7D3F90020FEF7D0F95D20F9
:10219000FEF7CDF90020FEF7CAF97420FEF7C7F963
:1021A0000020FEF7C4F98420FEF7C1F90020FEF7F5
:1021B000BEF99320FEF7BBF90020FEF7B8F9A22084
:1021C000FEF7B5F90020FEF7B2F9B320FEF7AFF93C
:1021D0000020FEF7ACF9BE20FEF7A9F90020FEF7BB
:1021E000A6F9C420FEF7A3F90020FEF7A0F9CD2040
:1021F000FEF79DF90020FEF79AF9D320FEF797F934
:102200000020FEF794F9DC20FEF791F90020FEF79C
:102210008EF9F320FEF78BF90020FEF788F9E6200F
:10222000FEF782F91120FEF782F90020FEF77FF910
:102230003420FEF77CF90020FEF779F95620FEF7EE
:1022400076F90020FEF773F97620FEF770F900208A
:10225000FEF76DF97720FEF76AF90020FEF767F9BF
:102260006620FEF764F90020FEF761F98820FEF78A
:102270005EF90020FEF75BF99920FEF758F900207F
:10228000FEF755F9BB20FEF752F90020FEF74FF993
:102290009920FEF74CF90020FEF749F96620FEF779
:1022A00046F90020FEF743F95520FEF740F90020DB
:1022B000FEF73DF95520FEF73AF90020FEF737F911
:1022C0004520FEF734F90020FEF731F94320FEF7F0
:1022D0002EF90020FEF72BF94420FEF728F9002004
:1022E000FEF725F9E720FEF71FF93220FEF71FF968
:1022F0000020FEF71CF95520FEF719F90020FEF723
:1023000016F97620FEF713F90020FEF710F9662083
:10231000FEF70DF90020FEF70AF96720FEF707F92E
:102320000020FEF704F96720FEF701F90020FEF710
:10233000FEF88720FEF7FBF80020FEF7F8F899205A
:10234000FEF7F5F80020FEF7F2F8BB20FEF7EFF8F5
:102350000020FEF7ECF89920FEF7E9F80020FEF7E0
:10236000E6F87720FEF7E3F80020FEF7E0F84420D7
:10237000FEF7DDF80020FEF7DAF85620FEF7D7F872
:102380000020FEF7D4F82320FEF7D1F80020FEF756
:10239000CEF83320FEF7CBF80020FEF7C8F8452032
:1023A000FEF7C5F80020FEF7C2F8E820FEF7BCF8FB
:1023B0000020FEF7BCF80020FEF7B9F89920FEF7E0
:1023C000B6F80020FEF7B3F88720FEF7B0F800203B
:1023D000FEF7ADF88820FEF7AAF80020FEF7A7F870
:1023E0007720FEF7A4F80020FEF7A1F86620FEF79C
:1023F0009EF80020FEF79BF88820FEF798F8002052
:10240000FEF795F8AA20FEF792F80020FEF78FF865
:10241000BB20FEF78CF80020FEF789F89920FEF724
:1024200086F80020FEF783F86620FEF780F800208B
:10243000FEF77DF85520FEF77AF80020FEF777F8D2
:102440005520FEF774F80020FEF771F84420FEF7DF
:102450006EF80020FEF76BF84420FEF768F80020C5
:10246000FEF765F85520FEF762F80020FEF75FF8EA
:10247000E920FEF759F8AA20FEF759F80020FEF7E8
:1024800056F80020FEF753F80020FEF750F8002021
:10249000FEF74AF8AA20FEF74AF8CF20FEF744F8E4
:1024A0000020FEF744F80020FEF741F80020FEF778
:1024B0003EF80020FEF73BF80020FEF738F8002039
:1024C000FEF735F80020FEF732F80020FEF72FF86F
:1024D0000020FEF72CF80020FEF729F80020FEF778
:1024E00026F80020FEF723F80020FEF720F8002051
:1024F000FEF71DF80020FEF71AF80020FEF717F887
:102500000020FEF714F8F020FEF70EF80020FEF78A
:102510000EF85020FEF70BF80020FEF708F8002018
:10252000FEF705F80020FEF702F8F320FDF7FCFFA8
:102530000020FDF7FCFFF920FDF7F6FF0620FDF770
:10254000F6FF1020FDF7F3FF2920FDF7F0FF002034
:10255000FDF7EDFF3A20FDF7E7FF5520FDF7E7FF18
:102560001120FDF7E1FF642002F041FC2920FDF776
:10257000DBFF3520FDF7D8FF0020FDF7D8FF512005
:10258000FDF7D2FFFF20FDF7D2FF5320FDF7CCFF70
:102590002C20FDF7CCFF5520FDF7C6FF8220FDF76C
:1025A000C6FF2C20FDF7C0FF02F0EBB8FE48808884
:1025B00045F2105188427DD155214FF47040FDF70E
:1025C000BEFFAA214FF20100FDF7B9FF52214FF2E1
:1025D0000200FDF7B4FF08214FF20300FDF7AFFF43
:1025E00001214FF20400FDF7AAFF0D214FF4304006
:1025F000FDF7A5FF0D214BF20100FDF7A0FF0D2116
:102600004BF20200FDF79BFF34214FF43640FDF7FB
:1026100096FF34214BF20160FDF791FF34214BF21C
:102620000260FDF78CFF0D214FF43140FDF787FF6D
:102630000D214BF20110FDF782FF0D214BF202102C
:10264000FDF77DFF34214FF43740FDF778FF34214B
:102650004BF20170FDF773FF34214BF20270FDF76E
:102660006EFF00214FF43240FDF769FF00214BF26D
:102670000120FDF764FF00214BF20220FDF75FFF10
:1026800024214FF43840FDF75AFF24214BF6010076
:10269000FDF755FF24214BF60200FDF750FF012105
:1026A0004FF43F40FDF74BFF0F214FF43340FDF750
:1026B00046FF00E0FDE30F214BF20130FDF73FFF45
:1026C0000F214BF20230FDF73AFF34214FF439402D
:1026D000FDF735FF34214BF60110FDF730FF3421B3
:1026E0004BF60210FDF72BFF08214FF43540FDF7A4
:1026F00026FF08214BF20150FDF721FF08214BF284
:102700000250FDF71CFF03214FF44240FDF717FF75
:1027100024214FF43A40FDF712FF24214BF601200B
:10272000FDF70DFF24214BF60220FDF708FF0021E5
:102730004FF43C40FDF703FF78214BF60140FDF7D5
:10274000FEFE00214BF60240FDF7F9FE00214FF49A
:102750003D40FDF7F4FE78214BF60150FDF7EFFE0A
:1027600000214BF60250FDF7EAFE00214FF43E40F7
:10277000FDF7E5FE64214BF60160FDF7E0FE002168
:102780004FF45140FDF7DBFE33214DF20110FDF710
:10279000D6FE00214DF20210FDF7D1FE34214DF29C
:1027A0000310FDF7CCFE00214DF20410FDF7C7FE2B
:1027B0003A214DF20510FDF7C2FE00214DF2061040
:1027C000FDF7BDFE4A214DF20710FDF7B8FE0021CE
:1027D0004DF20810FDF7B3FE5C214DF20910FDF734
:1027E000AEFE00214DF20A10FDF7A9FE81214DF247
:1027F0000B10FDF7A4FE00214DF20C10FDF79FFE1B
:10280000A6214DF20D10FDF79AFE00214DF20E109B
:10281000FDF795FEE5214DF20F10FDF790FE012129
:102820004DF21010FDF78BFE13214DF21110FDF744
:1028300086FE01214DF21210FDF781FE54214DF26A
:102840001310FDF77CFE01214DF21410FDF777FE09
:1028500082214DF21510FDF772FE01214DF2161086
:10286000FDF76DFECA214DF21710FDF768FE02213B
:102870004DF21810FDF763FE00214DF21910FDF71F
:102880005EFE02214DF21A10FDF759FE01214DF2B4
:102890001B10FDF754FE02214DF21C10FDF74FFEF8
:1028A00034214DF21D10FDF74AFE02214DF21E109B
:1028B000FDF745FE67214DF21F10FDF740FE022196
:1028C0004DF22010FDF73BFE84214DF22110FDF763
:1028D00036FE02214DF22210FDF731FEA4214DF209
:1028E0002310FDF72CFE02214DF22410FDF727FEE8
:1028F000B7214DF22510FDF722FE02214DF22610E0
:10290000FDF71DFECF214DF22710FDF718FE022125
:102910004DF22810FDF713FEDE214DF22910FDF7D0
:102920000EFE02214DF22A10FDF709FEF2214DF2B2
:102930002B10FDF704FE02214DF22C10FDF7FFFDD8
:10294000FE214DF22D10FDF7FAFD03214DF22E1060
:10295000FDF7F5FD10214DF22F10FDF7F0FD0321DD
:102960004DF23010FDF7EBFD33214DF23110FDF744
:10297000E6FD03214DF23210FDF7E1FD6D214DF230
:102980003310FDF7DCFD00214FF45240FDF7D7FD79
:1029900033214DF20120FDF7D2FD00214DF202203E
:1029A000FDF7CDFD342101E0380000204DF2032079
:1029B000FDF7C5FD00214DF20420FDF7C0FD3A21D1
:1029C0004DF20520FDF7BBFD00214DF20620FDF77D
:1029D000B6FD4A214DF20720FDF7B1FD00214DF271
:1029E0000820FDF7ACFD5C214DF20920FDF7A7FDA5
:1029F00000214DF20A20FDF7A2FD81214DF20B20AE
:102A0000FDF79DFD00214DF20C20FDF798FDA6215C
:102A10004DF20D20FDF793FD00214DF20E20FDF744
:102A20008EFDE5214DF20F20FDF789FD01214DF2CC
:102A30001020FDF784FD13214DF21120FDF77FFDDD
:102A400001214DF21220FDF77AFD54214DF21320A1
:102A5000FDF775FD01214DF21420FDF770FD822177
:102A60004DF21520FDF76BFD01214DF21620FDF70B
:102A700066FDCA214DF21720FDF761FD02214DF2DE
:102A80001820FDF75CFD00214DF21920FDF757FDE0
:102A900002214DF21A20FDF752FD01214DF21B20BB
:102AA000FDF74DFD02214DF21C20FDF748FD3421BC
:102AB0004DF21D20FDF743FD02214DF21E20FDF7D2
:102AC0003EFD67214DF21F20FDF739FD02214DF239
:102AD0002020FDF734FD84214DF22120FDF72FFD4C
:102AE00002214DF22220FDF72AFDA4214DF22320E0
:102AF000FDF725FD02214DF22420FDF720FDB72131
:102B00004DF22520FDF71BFD02214DF22620FDF799
:102B100016FDCF214DF22720FDF711FD02214DF2C8
:102B20002820FDF70CFDDE214DF22920FDF707FDE1
:102B300002214DF22A20FDF702FDF2214DF22B2059
:102B4000FDF7FDFC02214DF22C20FDF7F8FCFE21E3
:102B50004DF22D20FDF7F3FC03214DF22E20FDF761
:102B6000EEFC10214DF22F20FDF7E9FC03214DF280
:102B70003020FDF7E4FC33214DF23120FDF7DFFC7E
:102B800003214DF23220FDF7DAFC6D214DF23320A6
:102B9000FDF7D5FC00214FF45340FDF7D0FC332165
:102BA0004DF20130FDF7CBFC00214DF20230FDF774
:102BB000C6FC34214DF20330FDF7C1FC00214DF27B
:102BC0000430FDF7BCFC3A214DF20530FDF7B7FCAF
:102BD00000214DF20630FDF7B2FC4A214DF20730DC
:102BE000FDF7ADFC00214DF20830FDF7A8FC5C219B
:102BF0004DF20930FDF7A3FC00214DF20A30FDF73C
:102C00009EFC81214DF20B30FDF799FC00214DF225
:102C10000C30FDF794FCA6214DF20D30FDF78FFC32
:102C200000214DF20E30FDF78AFCE5214DF20F3008
:102C3000FDF785FC01214DF21030FDF780FC1321DA
:102C40004DF21130FDF77BFC01214DF21230FDF702
:102C500076FC54214DF21330FDF771FC01214DF249
:102C60001430FDF76CFC82214DF21530FDF767FC46
:102C700001214DF21630FDF762FCCA214DF21730EA
:102C8000FDF75DFC02214DF21830FDF758FC0021E4
:102C90004DF21930FDF753FC02214DF21A30FDF7C9
:102CA0004EFC01214DF21B30FDF749FC02214DF293
:102CB0001C30FDF744FC34214DF21D30FDF73FFC84
:102CC00002214DF21E30FDF73AFC67214DF21F3014
:102CD000FDF735FC02214DF22030FDF730FC842158
:102CE0004DF22130FDF72BFC02214DF22230FDF791
:102CF00026FCA4214DF22330FDF721FC02214DF2E8
:102D00002430FDF71CFCB7214DF22530FDF717FCF0
:102D100002214DF22630FDF712FCCF214DF2273073
:102D2000FDF70DFC02214DF22830FDF708FCDE21F5
:102D30004DF22930FDF703FC02214DF22A30FDF758
:102D4000FEFBF2214DF22B30FDF7F9FB02214DF293
:102D50002C30FDF7F4FBFE214DF22D30FDF7EFFB9B
:102D600003214DF22E30FDF7EAFB10214DF22F30FA
:102D7000FDF7E5FB03214DF23030FDF7E0FB332199
:102D80004DF23130FDF7DBFB03214DF23230FDF720
:102D9000D6FB6D214DF23330FDF7D1FB00214FF40E
:102DA0005440FDF7CCFB33214DF20140FDF7C7FB4A
:102DB00000214DF20240FDF7C2FB34214DF20340E9
:102DC000FDF7BDFB00214DF20440FDF7B8FB3A21B1
:102DD0004DF20540FDF7B3FB00214DF20640FDF733
:102DE000AEFB4A214DF20740FDF7A9FB00214DF251
:102DF0000840FDF7A4FB5C214DF20940FDF79FFB65
:102E000000214DF20A40FDF79AFB81214DF20B4063
:102E1000FDF795FB00214DF20C40FDF790FBA6213C
:102E20004DF20D40FDF78BFB00214DF20E40FDF7FA
:102E300086FBE5214DF20F40FDF781FB01214DF2AC
:102E40001040FDF77CFB13214DF21140FDF777FB9D
:102E500001214DF21240FDF772FB54214DF2134057
:102E6000FDF76DFB01214DF21440FDF768FB822157
:102E70004DF21540FDF763FB01214DF21640FDF7C1
:102E80005EFBCA214DF21740FDF759FB02214DF2BE
:102E90001840FDF754FB00214DF21940FDF74FFBA0
:102EA00002214DF21A40FDF74AFB01214DF21B4071
:102EB00000E006E3FDF743FB02214DF21C40FDF765
:102EC0003EFB34214DF21D40FDF739FB02214DF24E
:102ED0001E40FDF734FB67214DF21F40FDF72FFB2D
:102EE00002214DF22040FDF72AFB84214DF22140C2
:102EF000FDF725FB02214DF22240FDF720FBA42126
:102F00004DF22340FDF71BFB02214DF22440FDF75B
:102F100016FBB7214DF22540FDF711FB02214DF2C2
:102F20002640FDF70CFBCF214DF22740FDF707FBB4
:102F300002214DF22840FDF702FBDE214DF229402F
:102F4000FDF7FDFA02214DF22A40FDF7F8FAF221D1
:102F50004DF22B40FDF7F3FA02214DF22C40FDF724
:102F6000EEFAFE214DF22D40FDF7E9FA03214DF274
:102F70002E40FDF7E4FA10214DF22F40FDF7DFFA65
:102F800003214DF23040FDF7DAFA33214DF23140A2
:102F9000FDF7D5FA03214DF23240FDF7D0FA6D214D
:102FA0004DF23340FDF7CBFA00214FF45540FDF7C9
:102FB000C6FA33214DF20150FDF7C1FA00214DF25E
:102FC0000250FDF7BCFA34214DF20350FDF7B7FA79
:102FD00000214DF20450FDF7B2FA3A214DF20550AE
:102FE000FDF7ADFA00214DF20650FDF7A8FA4A218F
:102FF0004DF20750FDF7A3FA00214DF20850FDF7FE
:103000009EFA5C214DF20950FDF799FA00214DF22C
:103010000A50FDF794FA81214DF20B50FDF78FFA1B
:1030200000214DF20C50FDF78AFAA6214DF20D5009
:10303000FDF785FA00214DF20E50FDF780FAE521EB
:103040004DF20F50FDF77BFA01214DF21050FDF7C4
:1030500076FA13214DF21150FDF771FA01214DF26C
:103060001250FDF76CFA54214DF21350FDF767FA38
:1030700001214DF21450FDF762FA82214DF21550F4
:10308000FDF75DFA01214DF21650FDF758FACA21FD
:103090004DF21750FDF753FA02214DF21850FDF78B
:1030A0004EFA00214DF21950FDF749FA02214DF276
:1030B0001A50FDF744FA01214DF21B50FDF73FFA7B
:1030C00002214DF21C50FDF73AFA34214DF21D5009
:1030D000FDF735FA02214DF21E50FDF730FA672157
:1030E0004DF21F50FDF72BFA02214DF22050FDF753
:1030F00026FA84214DF22150FDF721FA02214DF2EA
:103100002250FDF71CFAA4214DF22350FDF717FAC7
:1031100002214DF22450FDF712FAB7214DF225504D
:10312000FDF70DFA02214DF22650FDF708FACF21E6
:103130004DF22750FDF703FA02214DF22850FDF71A
:10314000FEF9DE214DF22950FDF7F9F902214DF289
:103150002A50FDF7F4F9F2214DF22B50FDF7EFF96B
:1031600002214DF22C50FDF7EAF9FE214DF22D50CF
:10317000FDF7E5F903214DF22E50FDF7E0F910219E
:103180004DF22F50FDF7DBF903214DF23050FDF7E2
:10319000D6F933214DF23150FDF7D1F903214DF22B
:1031A0003250FDF7CCF96D214DF23350FDF7C7F9E0
:1031B00000214FF45640FDF7C2F933214DF2016072
:1031C000FDF7BDF900214DF20260FDF7B8F9342199
:1031D0004DF20360FDF7B3F900214DF20460FDF7F5
:1031E000AEF93A214DF20560FDF7A9F900214DF243
:1031F0000660FDF7A4F94A214DF20760FDF79FF93B
:1032000000214DF20860FDF79AF95C214DF209604A
:10321000FDF795F900214DF20A60FDF790F9812143
:103220004DF20B60FDF78BF900214DF20C60FDF7BC
:1032300086F9A6214DF20D60FDF781F900214DF2CE
:103240000E60FDF77CF9E5214DF20F60FDF777F98F
:1032500001214DF21060FDF772F913214DF211605A
:10326000FDF76DF901214DF21260FDF768F9542167
:103270004DF21360FDF763F901214DF21460FDF783
:103280005EF982214DF21560FDF759F901214DF2E9
:103290001660FDF754F9CA214DF21760FDF74FF99A
:1032A00002214DF21860FDF74AF900214DF2196034
:1032B000FDF745F902214DF21A60FDF740F90121B1
:1032C0004DF21B60FDF73BF902214DF21C60FDF74A
:1032D00036F934214DF21D60FDF731F902214DF22E
:1032E0001E60FDF72CF967214DF21F60FDF727F9ED
:1032F00002214DF22060FDF722F984214DF2216078
:10330000FDF71DF902214DF22260FDF718F9A42105
:103310004DF22360FDF713F902214DF22460FDF711
:103320000EF9B7214DF22560FDF709F902214DF2A2
:103330002660FDF704F9CF214DF22760FDF7FFF875
:1033400002214DF22860FDF7FAF8DE214DF22960E6
:10335000FDF7F5F802214DF22A60FDF7F0F8F221B1
:103360004DF22B60FDF7EBF802214DF22C60FDF7DA
:10337000E6F8FE214DF22D60FDF7E1F803214DF254
:103380002E60FDF7DCF810214DF22F60FDF7D7F825
:1033900003214DF23060FDF7D2F833214DF2316058
:1033A000FDF7CDF803214DF23260FDF7C8F86D212D
:1033B0004DF23360FDF7C3F855214FF47040FDF72F
:1033C000BEF8AA214FF20100FDF7B9F852214FF2E1
:1033D0000200FDF7B4F808214FF20300FDF7AFF843
:1033E00000214FF20400FDF7AAF8CC214FF4314040
:1033F000FDF7A5F800214BF20110FDF7A0F805211B
:103400004FF43640FDF79BF870214FF43740FDF73D
:1034100096F870214BF20170FDF791F801214FF4FD
:103420003840FDF78CF803214BF60100FDF787F8D3
:1034300003214BF60200FDF782F803214BF603004F
:10344000FDF77DF802214FF43C40FDF778F80021AC
:103450004BF60140FDF773F800214BF60240FDF7F3
:103460006EF8D0214FF44940FDF769F802214CF67F
:103470000110FDF764F850214CF60210FDF75FF8DB
:1034800050214CF60310FDF75AF850214CF6041069
:10349000FDF755F800214FF45450FDF750F8552131
:1034A0004FF46850FDF74BF84FF48850FDF73CF8A7
:1034B000782001F078FC4FF42450FDF735F801F046
:1034C00060B9FE48808849F2253188427ED147F6AE
:1034D000F001E520FDF733F84FF480710120FDF78E
:1034E0002EF84FF4E0610220FDF729F841F2300197
:1034F0000320FDF724F800210420FDF720F840F216
:1035000002210820FDF71BF800210920FDF717F81C
:1035100000210A20FDF713F800210C20FDF70FF819
:1035200000210D20FDF70BF800210F20FDF707F813
:1035300000211020FDF703F807211120FCF7FFFF01
:1035400000211220FCF7FBFF00211320FCF7F7FFFE
:1035500000210720FCF7F3FF41F290611020FCF7F7
:10356000EEFF40F227211120FCF7E9FF9D211220F8
:10357000FCF7E5FF4FF4C8511320FCF7E0FF2521CD
:103580002920FCF7DCFF0D212B20FCF7D8FF0721B9
:103590003020FCF7D4FF40F203313120FCF7CFFF9D
:1035A00003213220FCF7CBFF40F206213520FCF747
:1035B000C6FF08213620FCF7C2FF40F20641372043
:1035C000FCF7BDFF4FF44171382000E057E0FCF7F5
:1035D000B6FF07213920FCF7B2FF40F202613C2020
:1035E000FCF7ADFF08213D20FCF7A9FF002150208A
:1035F000FCF7A5FFEF215120FCF7A1FF002152208D
:10360000FCF79DFF40F23F115320FCF798FF4FF469
:1036100027416020FCF793FF01216120FCF78FFF19
:1036200000216A20FCF78BFF00218020FCF787FF38
:1036300000218120FCF783FF00218220FCF77FFF1F
:1036400000218320FCF77BFF00218420FCF777FF1B
:1036500000218520FCF773FF10219020FCF76FFFFD
:103660004FF4C0619220FCF76AFF40F2331107204B
:10367000FCF765FF22210020FCF761FF1FE78F4860
:10368000808849F2283188427ED141F28F01EC20B6
:10369000FCF755FF41F23421EF20FCF750FF4FF4C7
:1036A00080710120FCF74BFF4FF4E0610220FCF732
:1036B00046FF41F230010320FCF741FF00210420C6
:1036C000FCF73DFF40F202210820FCF738FF002103
:1036D0000920FCF734FF00210A20FCF730FF01210C
:1036E0000C20FCF72CFF00210D20FCF728FF002107
:1036F0000F20FCF724FF00211020FCF720FF0721FA
:103700001120FCF71CFF00211220FCF718FF0021FC
:103710001320FCF714FF01210720FCF710FF3220D3
:1037200001F065FB41F290411020FCF708FF40F2E8
:1037300027211120FCF703FF322001F058FB8A21DA
:103740001220FCF7FCFE322001F051FB4FF4D05167
:103750001320FCF7F4FE06212920FCF7F0FE0D21D2
:103760002B20FCF7ECFE322001F041FB0021202051
:10377000FCF7E5FE00212120FCF7E1FE322001F0FC
:1037800036FB0021302000E074E0FCF7D8FE40F268
:1037900004613120FCF7D3FE40F205313220FCF702
:1037A000CEFE00213520FCF7CAFE40F60941362046
:1037B000FCF7C5FE4FF401713720FCF7C0FE40F264
:1037C00001313820FCF7BBFE40F207713920FCF7CD
:1037D000B6FE00213C20FCF7B2FE40F60A213D2057
:1037E000FCF7ADFE322001F002FB00215020FCF777
:1037F000A6FEEF215120FCF7A2FE00215220FCF78B
:103800009EFE40F23F115320FCF799FE4FF42741F2
:103810006020FCF794FE01216120FCF790FE00215E
:103820006A20FCF78CFE00218020FCF788FE002136
:103830008120FCF784FE00218220FCF780FE00211D
:103840008320FCF77CFE00218420FCF778FE002119
:103850008520FCF774FE10219020FCF770FE4FF4D9
:10386000C0619220FCF76BFE40F233110720FCF799
:1038700066FE24E61148808849F2203188427DD1D5
:1038800000210846FCF75BFE4FF480710120FCF735
:1038900056FE4FF4E0610220FCF751FE41F2300188
:1038A0000320FCF74CFE00210420FCF748FE40F208
:1038B00002210820FCF743FE002101E0380000202F
:1038C0000920FCF73CFE00210A20FCF738FE01210C
:1038D0000C20FCF734FE00210D20FCF730FE002107
:1038E0000F20FCF72CFE322001F081FA40F201118A
:1038F0000720FCF724FE322001F079FA4FF48651BC
:103900001020FCF71CFE07211120FCF718FE4FF4D5
:1039100088711220FCF713FE4FF430611320FCF77E
:103920000EFE00212920FCF70AFE44F210012B2094
:10393000FCF705FE00215020FCF701FEEF2151208D
:10394000FCF7FDFD00215220FCF7F9FD40F23F118C
:103950005320FCF7F4FD4FF41C516020FCF7EFFD01
:1039600001216120FCF7EBFD00216A20FCF7E7FD57
:1039700000218020FCF7E3FD002100E031E0812000
:10398000FCF7DDFD00218220FCF7D9FD002183201A
:10399000FCF7D5FD00218420FCF7D1FD0021852016
:1039A000FCF7CDFD10219020FCF7C9FD00219220ED
:1039B000FCF7C5FD01219320FCF7C1FD4FF4887190
:1039C0009520FCF7BCFD00219720FCF7B8FD0021F5
:1039D0009820FCF7B4FD40F273110720FCF7AFFD0F
:1039E0006DE5FE48808849F2313188427DD141F24F
:1039F0001401E720FCF7A3FD4FF480710120FCF7D0
:103A00009EFD4FF400710220FCF799FD41F2380150
:103A10000320FCF794FD40F202210820FCF78FFD03
:103A200000210920FCF78BFD00210A20FCF787FD0F
:103A300000210C20FCF783FD00210D20FCF77FFD09
:103A400000210F20FCF77BFD00211020FCF777FD03
:103A500007211120FCF773FD00211220FCF76FFDF8
:103A600000211320FCF76BFDC82001F0C0F941F2E2
:103A700090611020FCF763FD40F227211120FCF734
:103A80005EFD322001F0B3F90C211220FCF757FD46
:103A9000322001F0ACF94FF400611320FCF74FFD28
:103AA00011212920FCF74BFD0B212B20FCF747FDB2
:103AB000322001F09CF900212020FCF740FD40F26B
:103AC0003F112120FCF73BFD00213020FCF737FDA2
:103AD0004FF483713120FCF732FD00213220FCF7D6
:103AE0002EFD4FF40171352000E064E0FCF727FD66
:103AF00041F20A613620FCF722FD40F207713720BF
:103B0000FCF71DFD4FF483713820FCF718FD40F2DF
:103B100007713920FCF713FD40F202413C20FCF70D
:103B20000EFD40F60F413D20FCF709FD002150201D
:103B3000FCF705FDEF215120FCF701FD002152208B
:103B4000FCF7FDFC40F23F115320FCF7F8FC4FF46A
:103B50001C516020FCF7F3FC01216120FCF7EFFC15
:103B600000216A20FCF7EBFC00218020FCF7E7FC39
:103B700000218120FCF7E3FC00218220FCF7DFFC20
:103B800000218320FCF7DBFC00218420FCF7D7FC1C
:103B900000218520FCF7D3FC10219020FCF7CFFCFE
:103BA0004FF4C0619220FCF7CAFC40F233110720A9
:103BB000FCF7C5FC83E48948808845F208418842C7
:103BC0007ED14FF480710120FCF7B9FC4FF4E06125
:103BD0000220FCF7B4FC41F230010320FCF7AFFCFB
:103BE00000210420FCF7ABFC40F207210820FCF781
:103BF000A6FC00210920FCF7A2FC00210A20FCF70A
:103C00009EFC00210C20FCF79AFC00210D20FCF703
:103C100096FC00210F20FCF792FC142001F0E7F83D
:103C200041F2B0611020FCF78AFC01211120FCF761
:103C300086FC01211720FCF782FC4FF49C711220B6
:103C4000FCF77DFC4FF400611320FCF778FC0921A0
:103C50002920FCF774FC09212A20FCF770FC0021C4
:103C6000A420FCF76CFC00215020FCF768FCEF213D
:103C70005120FCF764FC00215220FCF760FC40F26C
:103C80003F115320FCF75BFC4FF41C516020FCF704
:103C900056FC01216120FCF752FC00216A20FCF750
:103CA0004EFC00218020FCF74AFC00218120FCF71B
:103CB00046FC00218220FCF742FC0021832000E02A
:103CC00023E0FCF73CFC00218420FCF738FC0021B9
:103CD0008520FCF734FC13219020FCF730FC0021F8
:103CE0009220FCF72CFC03219320FCF728FC4FF4D6
:103CF00088719520FCF723FC40F273110720FCF734
:103D00001EFC322001F073F8B8E43448808841F298
:103D1000055188427ED100210720FCF710FC32209B
:103D200001F065F84FF48E711220FCF708FC0121B8
:103D3000A420FCF704FC0F210820FCF700FC08215C
:103D40000A20FCF7FCFB08210D20FCF7F8FB40F2F1
:103D500007713020FCF7F3FB07213120FCF7EFFB64
:103D600040F203613220FCF7EAFB4FF4E0613320BC
:103D7000FCF7E5FB40F202213420FCF7E0FB0221D6
:103D80003520FCF7DCFB41F60F713620FCF7D7FB42
:103D900040F207713720FCF7D2FB00213820FCF7F6
:103DA000CEFB00213920FCF7CAFB40F207713A2014
:103DB000FCF7C5FB00213B20FCF7C1FB07213C20A1
:103DC000FCF7BDFB00213D20FCF7B9FB322001F0E0
:103DD0000EF801210720FCF7B2FB01E038000020BB
:103DE00001211720FCF7ABFB322001F000F84FF463
:103DF000BD511020FCF7A3FB40F217211120FCF766
:103E00009EFB4FF48F711220FCF799FB4FF4706109
:103E1000132000E097E0FCF792FB00212A20FCF73A
:103E20008EFB0A212920FCF78AFB4FF49F71122098
:103E3000FCF785FB00215020FCF781FBEF2151208E
:103E4000FCF77DFB00215220FCF779FB40F23F118B
:103E50005320FCF774FB4FF41C516020FCF76FFB00
:103E600001216120FCF76BFB00216A20FCF767FB56
:103E700000218020FCF763FB00218120FCF75FFB21
:103E800000218220FCF75BFB00218320FCF757FB1D
:103E900000218420FCF753FB00218520FCF74FFB19
:103EA00013219020FCF74BFB4FF440719220FCF75C
:103EB00046FB05219320FCF742FB00219520FCF7EF
:103EC0003EFB00219720FCF73AFB00219820FCF7ED
:103ED00036FB4FF480710120FCF731FB4FF4E061B9
:103EE0000220FCF72CFB41F238010320FCF727FBF2
:103EF00000210420FCF723FB00210C20FCF71FFB12
:103F000000210F20FCF71BFB00212020FCF717FBF2
:103F100000212120FCF713FB21210720FCF70FFBD8
:103F2000142000F064FF61210720FCF708FB142037
:103F300000F05DFF40F273110720FCF700FB142036
:103F400000F055FF95E4FE4880884BF20551884209
:103F50007ED100210846FCF7F2FA00210846FCF762
:103F6000EEFA00210846FCF7EAFA00210846FCF7C1
:103F7000E6FA0121A420FCF7E2FA142000F037FF52
:103F80004FF41C516020FCF7DAFA40F202210820BD
:103F9000FCF7D5FA4FF405713020FCF7D0FA43F264
:103FA00015713120FCF7CBFA40F204613220FCF7A6
:103FB000C6FA40F616613320FCF7C1FA42F211212D
:103FC0003420FCF7BCFA4FF4A8513520FCF7B7FABF
:103FD00048F207513620FCF7B2FA41F20741372088
:103FE000FCF7ADFA41F203413820FCF7A8FA202192
:103FF0003920FCF7A4FA1A219020FCF7A0FA00213E
:104000001020FCF79CFA07211120FCF798FA0021F8
:104010001220FCF794FA00211320FCF790FA1420E8
:1040200000F0E5FE4FF4E6611020FCF788FA40F25C
:1040300037111120FCF783FA142000F0D8FE4FF45A
:10404000DC711220FCF77BFA142000F0D0FE00E0B7
:1040500083E04FF470611320FCF771FA80212A206D
:10406000FCF76DFA48212920FCF769FA142000F0CA
:10407000BEFE4FF480710120FCF761FA4FF4E0615D
:104080000220FCF75CFA41F238010320FCF757FAF2
:1040900040F202210820FCF752FA00210A20FCF726
:1040A0004EFA00210C20FCF74AFA00210D20FCF703
:1040B00046FA30210E20FCF742FA00215020FCF78E
:1040C0003EFAEF215120FCF73AFA00215220FCF78A
:1040D00036FA40F23F115320FCF731FA4FF41C51ED
:1040E0006020FCF72CFA01216120FCF728FA00215E
:1040F0006A20FCF724FA11219020FCF720FA4FF4F3
:10410000C0619220FCF71BFA40F202419320FCF7B9
:1041100016FA02219420FCF712FA142000F067FE30
:1041200001210720FCF70BFA142000F060FE61214A
:104130000720FCF704FA40F273110720FCF7FFF99F
:1041400000212020FCF7FBF900212120FCF7F7F9E2
:1041500022210020FCF7F3F913E3794880884CF220
:10416000055188427ED100210846FCF7E8F900217C
:104170000846FCF7E4F9142000F039FE0021084657
:10418000FCF7DDF900210846FCF7D9F900210846C3
:10419000FCF7D5F900210846FCF7D1F90121A4204C
:1041A000FCF7CDF9142000F022FE4FF41C516020E2
:1041B000FCF7C5F940F606010820FCF7C0F940F20B
:1041C00003713020FCF7BBF901213120FCF7B7F96E
:1041D00004213220FCF7B3F94FF481713320FCF74E
:1041E000AEF94FF440713420FCF7A9F940F2031105
:1041F0003520FCF7A4F91F213620FCF7A0F940F286
:1042000003713720FCF79BF901213820FCF797F95F
:1042100004213920FCF793F915219020FCF78FF940
:104220004FF482611020FCF78AF940F247211120F7
:10423000FCF785F94FF4DE711220FCF780F94FF49A
:1042400060611320FCF77BF9782000F0D0FD4FF47B
:1042500080710120FCF773F94FF400710220FCF724
:104260006EF900E050E041F230010320FCF767F9FD
:1042700008210A20FCF763F900210C20FCF75FF904
:1042800020210E20FCF75BF900210F20FCF757F9E5
:1042900000212020FCF753F900212120FCF74FF9E1
:1042A0003D212A20FCF74BF9142000F0A0FD2D2120
:1042B0002920FCF744F900215020FCF740F94DF289
:1042C000EF015120FCF73BF900215220FCF737F9B0
:1042D00040F23F115320FCF732F900216120FCF736
:1042E0002EF900216A20FCF72AF94FF44071922040
:1042F000FCF725F905219320FCF721F94FF4807193
:104300000720FCF71CF93CE20D48808848F689112B
:1043100088427DD101210020FCF711F94AF6A40161
:104320000320FCF70CF900210C20FCF708F940F6FB
:104330000C010D20FCF703F94FF42C510E2001E085
:1043400038000020FCF7FBF8B0211E20FCF7F7F83E
:1043500042F63F310120FCF7F2F84FF4C061022031
:10436000FCF7EDF800211020FCF7E9F846F278019F
:104370001120FCF7E4F800210520FCF7E0F800210B
:104380000620FCF7DCF84EF61C711620FCF7D7F877
:1043900003211720FCF7D3F840F233210720FCF764
:1043A000CEF800210B20FCF7CAF800210F20FCF703
:1043B000C6F800214120FCF7C2F800214220FCF79A
:1043C000BEF800214820FCF7BAF840F23F1149201E
:1043D000FCF7B5F800214A20FCF7B1F800214B208A
:1043E000FCF7ADF84FF46F414420FCF7A8F800212A
:1043F0004520FCF7A4F840F23F114620FCF79FF857
:1044000040F207713020FCF79AF84FF4017100E098
:1044100040E03120FCF793F84FF401713220FCF7B3
:104420008EF840F202513320FCF789F840F2075130
:104430003420FCF784F84FF401713520FCF77FF845
:104440004FF401713620FCF77AF840F20251372020
:10445000FCF775F840F202313A20FCF770F840F2B0
:1044600002313B20FCF76BF800212320FCF767F8B2
:1044700000212420FCF763F84FF400412520FCF7CD
:104480005EF800214F20FCF75AF800214E20FCF77F
:1044900056F876E1F748808844F2315188427DD160
:1044A00001210020FCF74BF80A2000F0A0FC41F2AB
:1044B00028611020FCF743F80E211220FCF73FF88A
:1044C00040F639211320FCF73AF80A2000F08FFC5F
:1044D00040211120FCF733F850211520FCF72FF86C
:1044E0000A2000F084FC1E211220FCF728F80A2084
:1044F00000F07DFC4FF4B1511020FCF720F842F69B
:1045000039211320FCF71BF80A2000F070FC4FF44F
:1045100080710120FCF713F84FF440710220FCF782
:104520000EF841F238010320FCF709F840F20221AD
:104530000820FCF704F808210A20FCF700F8002105
:104540003020FBF7FCFF40F202413120FBF7F7FF80
:104550004FF483713220FBF7F2FF40F20351332016
:10456000FBF7EDFF4FF482713420FBF7E8FF40F2D8
:1045700001313520FBF7E3FF40F207713620FBF7EE
:10458000DEFF40F205313720FBF7D9FF4FF402710F
:104590003820FBF7D4FF40F60B7100E03CE03920F7
:1045A000FBF7CDFF02214120FBF7C9FF4FF41C515F
:1045B0006020FBF7C4FF01216120FBF7C0FF4FF42F
:1045C00004719020FBF7BBFF4FF485719220FBF73D
:1045D000B6FF04219320FBF7B2FF4FF48071A020B7
:1045E000FBF7ADFF01210720FBF7A9FF21210720E1
:1045F000FBF7A5FF23210720FBF7A1FF33210720AD
:10460000FBF79DFF40F233110720FBF798FF0021D5
:10461000A020FBF794FFB4E09648808844F235511F
:104620008842F8D130211520FBF789FF10219A200C
:10463000FBF785FF20211120FBF781FF43F2284182
:104640001020FBF77CFF02211220FBF778FF41F2DC
:1046500038011320FBF773FF282000F0C8FB12215C
:104660000846FBF76CFF282000F0C1FB43F2204115
:104670001020FBF764FF43F238011320FBF75FFFC4
:10468000462000F0B4FB00213020FBF758FF40F239
:1046900002413120FBF753FF40F207313220FBF794
:1046A0004EFF4FF441713320FBF749FF04213420C2
:1046B000FBF745FF40F201413520FBF740FF40F298
:1046C00007713620FBF73BFF40F205313720FBF73F
:1046D00036FF4FF4C2613820FBF731FF4FF4C2615F
:1046E0003920FBF72CFF4FF480710120FBF727FFE7
:1046F0004FF440710220FBF722FF41F2300103200A
:10470000FBF71DFF40F608010820FBF718FF082102
:104710000A20FBF714FF4FF41C516020FBF70FFF3A
:1047200001216120FBF70BFF4FF49F719020FBF7F5
:1047300006FF4FF480719220FBF701FF4FF4807168
:104740009320FBF7FCFE4FF44051A020FBF7F7FE4F
:104750001021A320FBF7F3FE01210720FBF7EFFE5A
:1047600021210720FBF7EBFE23210720FBF7E7FEC3
:1047700033210720FBF7E3FE40F233110720FBF75C
:10478000DEFE0020FCF78DFA01203B4908604FF661
:10479000FF70FCF731FC1FB000BD2DE9FC4F054652
:1047A0000E4617469846DDF82C90002001903148BF
:1047B000808846F60401884229D12E488079012854
:1047C00025D1AB4635462B480088C01B401E86B21B
:1047D000474628480088A0EB0B00401E1FFA80F8CF
:1047E0000020244988712A2048812B208881434653
:1047F0003A4631462846CDF80090FFF7CEFF01201B
:104800001C4988712B2048812A2088811CE0781B54
:10481000401C80B20190344614E021462846FBF744
:10482000BBFEFBF79CFE4FF0000A06E04846FBF794
:104830007EFE0AF101001FFA80FA01988245F5DB3D
:10484000601C84B24445E8DDBDE8FC8F2DE9F84FDB
:1048500007460D4690469946DDF828B0A8EB0700BC
:10486000401C80B20090A9EB0500401C1FFA80FAA2
:10487000002419E03800002080812142281981B2EB
:104880003846FBF789FEFBF76AFE002607E004FBCB
:104890000A603BF81000FE490880701C86B2009840
:1048A0008642F4DB601C84B25445E7DBBDE8F88F38
:1048B0002DE9FF4F84B081468A4600200390029084
:1048C0000698A0EB09050798A0EB0A06CDF804901E
:1048D000CDF800A0002D01DD012705E00DB900276E
:1048E00002E04FF0FF376D42002E02DD4FF001086D
:1048F00006E016B94FF0000802E04FF0FF387642AC
:10490000B54201DD2C4600E034464FF0000B21E0BB
:10491000009A91B2019A90B2FCF72AF903982844C0
:1049200003900298304402900398A04205DD03985A
:10493000001B03900198384401900298A04205DDC5
:104940000298001B02900098404400900BF1010077
:104950001FFA80FB601C8345DADD08B0BDE8F08FEC
:10496000F0B504460D4616461F462B4632462946EC
:104970002046FFF79DFF3B46224629462046FFF78B
:1049800097FF3B46324639462046FFF791FF3B46AC
:10499000324629463046FFF78BFFF0BD2DE9F04344
:1049A00006460F469046002445460320A0EB4809E2
:1049B0003CE07A1B91B2321990B2FCF7D9F83A1B5D
:1049C00091B2721990B2FCF7D3F83A1991B27219F8
:1049D00090B2FCF7CDF87A1991B2321990B2FCF787
:1049E000C7F87A1991B2321B90B2FCF7C1F83A19A4
:1049F00091B2721B90B2FCF7BBF87A1B91B2321BDA
:104A000090B2FCF7B5F83A1B91B2721B90B2FCF76A
:104A1000AFF8641CB9F1000F03DAA000801D8144D7
:104A200004E0601B80000A3081446D1EAC42C0DD92
:104A3000BDE8F0832DE9F84F05460F4690461E4627
:104A400000979448B0F80090A8F1200000F0FF080B
:104A50000A9800284ED1002449E00C2E07D108EB1B
:104A600048008D4901EB800010F804A004E08B4859
:104A700000EB081010F804A04FF0000B31E00AF032
:104A8000800018B18348A0F8009003E084480088B3
:104A90008049088039462846FCF76AF84FEA4A60A0
:104AA0004FEA106A781C87B27E480088A84204DC6E
:104AB0007848A0F80090BDE8F88F0098381AB04206
:104AC0000BD1009F681C85B276480088A84203DCA1
:104AD0007048A0F80090EEE706E00BF1010000F04E
:104AE000FF0BBBF1080FCADB00BF601CC4B2B442AD
:104AF000B3DB44E0002440E00C2E07D108EB480073
:104B0000654901EB800010F804A004E0634800EB65
:104B1000081010F804A04FF0000B28E00AF0800005
:104B200018B139462846FCF723F84FEA4A604FEAA5
:104B3000106A781C87B25B484088A84203DC55485D
:104B4000A0F80090B7E70098381AB0420BD1009F48
:104B5000681C85B253480088A84203DC4D48A0F881
:104B60000090A8E706E00BF1010000F0FF0BBBF19D
:104B7000080FD3DB00BF601CC4B2B442BCDB4548A5
:104B8000A0F8009000BF96E710B50246012000E0B3
:104B900050430B00A1F10104E1B2F9D110BD2DE9A0
:104BA000FF4F81B0074691461E460E9D4FF0000A0A
:104BB000002439E0301B401EC1B20A20FFF7E4FF99
:104BC000B9FBF0F00A21B0FBF1F201FB1208BAF1D7
:104BD000000F16D1701EA04213DDB8F1000F0ED1E8
:104BE0000020AB4605EBDB71491001FB047100901E
:104BF00088B22B4620220299FFF71CFF12E04FF0EB
:104C0000010A0020AB4605EBDB71491001FB047182
:104C1000009088B208F13001CAB22B460299FFF722
:104C200009FF00BF601CC4B2B442C3DB05B0BDE8DD
:104C3000F08F2DE9FF4F82B0064692461F46DDE910
:104C40000F480020019000255BE0781B401EC1B298
:104C50000A20FFF799FFBAFBF0F00A21B0FBF1F24E
:104C600001FB12090198A8BB781EA84235DDB9F1F5
:104C7000000F30D108F08000E0B108F00100A34639
:104C800004EBDB71491001FB0561009088B20BE079
:104C90000008006C1400002082650008F669000816
:104CA0001600002038000020234630220399FFF729
:104CB000C1FE0EE008F00100A34604EBDB714910D1
:104CC00001FB0561009088B2234620220399FFF77B
:104CD000B1FE14E001E00120019008F00100A346BC
:104CE00004EBDB71491001FB0561009088B209F10A
:104CF0003001CAB223460399FFF79CFE00BF681C2F
:104D0000C5B2BD42A1DB06B0BDE8F08F2DE9F84782
:104D100004460D4690469946DDE9096704F0FF0A0E
:104D200008EB04001FFA80F809EB05001FFA80F970
:104D300016E0444502DB5446A81985B24D4500DB18
:104D400014E0002000903A78334629462046FFF7C9
:104D500071FE304606EBD07104EB61018CB27F1C12
:104D600038787E2802DC38782028E2DA00BFBDE8F7
:104D7000F887000010B56FF0040000F07EF92E48AF
:104D800000682E49B0FBF1F02D4908700846007804
:104D900000EB4001C1EBC0104FF6FF7101EAC0000B
:104DA0002849088010BD0146254A12784A434FF031
:104DB000E0235A6100229A611A46126942F0010208
:104DC0001A6100BF4FF0E022106900F001021AB131
:104DD00000F48032002AF5D04FF0E022126922F070
:104DE00001024FF0E0231A6100229A6170470146E8
:104DF000144A12884A434FF0E0235A6100229A6114
:104E00001A46126942F001021A6100BF4FF0E02217
:104E1000106900F001021AB100F48032002AF5D0C6
:104E20004FF0E022126922F001024FF0E0231A61F4
:104E300000229A61704700000000002000127A00F2
:104E4000180000201A00002010B54FF4A06000F0F8
:104E5000C5F810BD014600BF704700BF4B4A12881D
:104E600002F04002002AF9D0C2B2484B1B1D1A8042
:104E7000704710B586B00446012144F2040000F0EA
:104E80003DFF424800F09EFF4FF40070ADF8140063
:104E900003208DF8160018208DF8170005A93C484E
:104EA00000F070FC4FF48060ADF8140004208DF821
:104EB000170005A9364800F065FC25208DF8000094
:104EC00003208DF801008DF8020001208DF8030009
:104ED000684600F088F801940020ADF80800ADF8AD
:104EE0000A00ADF80C00ADF810000C20ADF80E0073
:104EF00001A9264800F0A9FF012240F225512348CC
:104F000001F03BF80121214801F02BF806B010BD5B
:104F100010B540F225511D4801F014F910B31B489B
:104F200001F090F8C4B21B48008800F40040C8B9F2
:104F30001848008800F4804060B10A2C03D000209B
:104F40001449088020E01348008840F400401149CB
:104F5000088019E00D2C06D10E48008840F48040EE
:104F60000C49088010E00B480088C0F30D000A4986
:104F70000C5408480088401C0649088008460088F0
:104F8000C72801DD0020088010BD00000038014066
:104F9000000801402000002046000020094880470A
:104FA00009480047FEE7FEE7FEE7FEE7FEE7FEE70B
:104FB000FEE7FEE7FEE7FEE704480549054A064B23
:104FC00070470000DB030008310100087001002079
:104FD0007007002070030020700300203149014356
:104FE000314A1160704770B5002100230F22C47848
:104FF00004B32D4C246804F4E064C4F5E064210A91
:10500000C1F10403CA40447804FA03F184781440DF
:1050100021430901254C0678A155047804F01F05A9
:105020000124AC4005786D11AD0005F1E025C5F80F
:10503000004109E0047804F01F050124AC401C4D38
:105040000678761145F8264070BD1A4A0A40024398
:10505000154B1B1F1A60704739B1134A121D126895
:105060000243114B1B1D1A6006E00F4A121D126805
:1050700082430D4B1B1D1A607047042808D14FF066
:10508000E021096941F004014FF0E022116107E0DD
:105090004FF0E021096921F004014FF0E022116195
:1050A000704700000000FA050CED00E000E400E0AD
:1050B00080E100E080FFFF1F30B943F2DB02810096
:1050C000A1F1C0410A6005E043F2D2028100A1F1E2
:1050D000C0410A606FF07042411C8900A1F1C041DB
:1050E0000A608100A1F1C041C1F804217047102875
:1050F0000AD118214FF020421166402151664FF02D
:10510000FC319166D16610E01821F74A1160402108
:105110004FF02042C2F884104FF0FC31F24A0832BE
:1051200011604FF02042C2F88C1070471820EE49F1
:105130002031086000200906C1F8A4004FF0FC30BF
:10514000E94928310860091D0860091D0860704799
:10515000D0E901121143C268114302691143426947
:10516000114382691143C2691143026A1143426AC1
:105170001143826A1143C26A1143026B11430268F0
:105180009200A2F1C0421160816808290BD1016828
:105190008900A1F1C041096841F04002016889001D
:1051A000A1F1C0410A60416B0968426B526841EA53
:1051B0000211426B926841EA0221426B928941EAF4
:1051C0000241426B128A41EA0251426B127D41EA6E
:1051D0000261426B926911430268521C9200A2F173
:1051E000C0421160C16AB1F5804F1BD1816B096863
:1051F000826B526841EA0211826B926841EA022195
:10520000826B128A41EA0251826B127D41EA02618D
:10521000826B9269114302689200A2F1C042C2F807
:10522000041107E06FF0704201688900A1F1C041EC
:10523000C1F80421704730B50021002200234468E2
:1052400044F0080485682C43C5682C4305692C4349
:10525000456944EA4524856944EA4531C4692468BE
:10526000C5696D6844EA0524C5692D8944EA054489
:10527000C5692D7B44EA0562046A2468056A6D6885
:1052800044EA0524056A2D8944EA0544056A2D7B14
:1052900044EA05630468102C05D14FF020442166D0
:1052A000A266E36608E0904C21604FF02044C4F809
:1052B00088208D4C0C34236030BD016841F0100112
:1052C000426841EA4221826841EA4231864A2032FC
:1052D0001160C1680968C268526841EA0221C26867
:1052E000128941EA0241C268127B41EA02617E4AA8
:1052F00028321160016909680269526841EA022195
:105300000269128941EA02410269127B41EA0261A3
:10531000754A2C321160416909684269526841EA54
:1053200002214269128941EA02414269127B41EA43
:1053300002614FF02042C2F8B010704700210160B6
:105340000221416000218160C16001614161816190
:10535000C16101624FF480514162490081620021C4
:10536000C16201630F21426B1160426B5160FF21EA
:10537000426B91600F21426BD160426B1161426BB5
:1053800051610021426B91610F21826B1160826B30
:105390005160FF21826B91600F21826BD160826B23
:1053A0001161826B51610021826B91617047102104
:1053B0000160002141608160C160016141618161E2
:1053C000FC21C2691160C2695160C2699160C26901
:1053D000D160026A1160026A5160026A9160026AD9
:1053E000D16070470021016041608160FC21C2688A
:1053F0001160C2685160C2689160C268D160026980
:10540000116002695160026991600269D16042696C
:10541000116042695160426991604269D160704790
:1054200051B18200A2F1C042126842F00103820031
:10543000A2F1C042136009E08200A2F1C0421268EA
:105440002A4B1A408300A3F1C0431A60704799B1F8
:10545000102808D14FF02042126E42F004024FF0A3
:1054600020431A661DE0204A126842F004024FF001
:105470002043C3F8802014E0102809D14FF02042C7
:10548000126E1A4BDB1E1A404FF020431A6608E0DA
:10549000154A1268154BDB1E1A404FF02043C3F823
:1054A0008020704748B110492031096841F004015B
:1054B0004FF02042C2F8A01009E00B4920310968E2
:1054C0000A4AD21E11404FF02042C2F8A010704785
:1054D000B9B110280CD14FF02042126E42F04002B8
:1054E0004FF020431A661FE0800000A0FEFF0F006F
:1054F000724A126842F040024FF02043C3F8802005
:1055000012E0102808D14FF02042126E6C4B1A4066
:105510004FF020431A6607E0684A1268684B1A4049
:105520004FF02043C3F88020704701460020102927
:1055300003D14FF02042506F02E0604A14321068ED
:10554000704710B5F2B1102807D14FF020435B6EC1
:105550000B434FF02044636632E0B0F5807F08D102
:10556000564B1B1D1B680B434FF02044C4F884307E
:1055700026E0524B24331B680B434FF02044C4F801
:10558000A4301DE0102807D14FF020435B6E8B4301
:105590004FF02044636613E0B0F5807F08D1474B9D
:1055A0001B1D1B688B434FF02044C4F8843007E078
:1055B000424B24331B688B434FF02044C4F8A43083
:1055C00010BD10B5024600200023102A03D14FF071
:1055D0002044636E09E0B2F5807F03D1374C241D6F
:1055E000236802E0354C2434236803EA01040CB13B
:1055F000012000E0002010BD102807D14FF020420C
:10560000526E8A434FF020435A6613E0B0F5807F14
:1056100008D12A4A121D12688A434FF02043C3F86A
:10562000842007E0254A243212688A434FF0204341
:10563000C3F8A420704770B5024600200023002460
:105640000025102A03D14FF02046736E09E0B2F511
:10565000807F03D1194E361D336802E0174E243681
:10566000336803EA010403EAD10514B10DB1012046
:1056700000E0002070BD102808D14FF02042526E8B
:1056800022EAD1024FF020435A6615E0B0F5807F40
:1056900009D10A4A121D126822EAD1024FF02043B2
:1056A000C3F8842008E0054A2432126822EAD102B5
:1056B0004FF02043C3F8A42070470000800000A0F2
:1056C000BFFF0F0010B50446CC48844208D1012129
:1056D000042000F02DFB0021042000F029FB46E00F
:1056E000C748844208D10121082000F021FB002195
:1056F000082000F01DFB3AE0C248844208D1012195
:10570000102000F015FB0021102000F011FB2EE00E
:10571000BD48844208D10121202000F009FB00216E
:10572000202000F005FB22E0B848844208D1012186
:10573000402000F0FDFA0021402000F0F9FA16E0C8
:10574000B348844208D10121802000F0F1FA002101
:10575000802000F0EDFA0AE0AE48844207D1012132
:10576000801500F0E5FA0021A01500F0E1FA10BD67
:1057700010B50121084600F0DBFA0021012000F0FD
:10578000D7FA10BD2DE9F041024600250026002081
:1057900000230024002791F803C00CF00F0591F8B6
:1057A00003C00CF0100CBCF1000F03D091F802C044
:1057B0004CEA050591F800C0BCF1000F31D0146827
:1057C00000202BE04FF0010C0CFA00F3B1F800C000
:1057D0000CEA03069E4220D183004FF00F0C0CFA16
:1057E00003F7BC4305FA03FC4CEA040491F803C038
:1057F000BCF1280F06D14FF0010C0CFA00FCC2F8E6
:1058000014C00AE091F803C0BCF1480F05D14FF075
:10581000010C0CFA00FCC2F810C0401C0828D1D3BF
:105820001460B1F800C0BCF1FF0F34DD54680020F3
:105830002EE000F1080C4FF0010808FA0CF3B1F863
:1058400000C00CEA03069E4221D183004FF00F0CEA
:105850000CFA03F7BC4305FA03FC4CEA040491F884
:1058600003C0BCF1280F05D100F1080C08FA0CF8B0
:10587000C2F8148091F803C0BCF1480F07D100F1C1
:10588000080C4FF0010808FA0CF8C2F81080401C10
:105890000828CED35460BDE8F0814FF6FF71018037
:1058A000022181700421C170704702460020936874
:1058B0000B400BB1012000E00020704701468868D2
:1058C00080B2704702460020D3680B400BB1012024
:1058D00000E0002070470146C86880B2704701614F
:1058E0007047416170470AB1016100E04161704752
:1058F000C16070474FF480320A43826181618261E6
:1059000082698269704702460020434B18684FF64F
:105910008073184040EA021008433F4B18607047FC
:105920003E49C8617047F0B50A46002300240021B3
:10593000002500F00046B6F1004F02D1364EF16965
:1059400001E0354E7168C0F3034583B200F44016A0
:10595000B6F5401F08D121F070612F4E766826F011
:1059600070662D4F7E6012E000F48016B6F5801F41
:1059700006D1032606FA05F4A14341F0706106E062
:10598000460D360103FA06F6B14341F0706122B1CB
:10599000460D360103FA06F6314300F00046B6F133
:1059A000004F02D11C4EF16101E01B4E7160F0BD51
:1059B00030B500228B071C0F0F2303FA04F2164B9D
:1059C00008338C1053F824309343134C08348D1053
:1059D00044F8253023468C1053F824308C07240FCC
:1059E00000FA04F423430C4C08348D1044F825309D
:1059F00030BD0A49DC3108607047000000080140F2
:105A0000000C01400010014000140140001801404A
:105A1000001C014000200140000001400000204225
:105A2000DF48006840F00100DD4908600846406832
:105A3000DC490840DA49486008460068DA4908400D
:105A4000D74908600846006820F4802008600846AE
:105A5000406820F4FE0048604FF41F0088607047E3
:105A6000CF49096821F48031CD4A11601146096897
:105A700021F480211160B0F5803F03D0B0F5802F74
:105A80000ED106E0C649096841F48031C44A11606C
:105A900007E0C349096841F4A021C14A116000E050
:105AA00000BF00BF704710B5014600220023002050
:105AB0004A11012A02D1BA4C236806E0022A02D117
:105AC000B74C236A01E0B64C636A01F01F0201245F
:105AD00094401C400CB1012000E0002010BD38B5FE
